:040000005FEF0DF0B1
:101AB4003F065B4F666D7D077F6FB40EF66E1A0EA0
:101AC400F76E000EF86E00EE18F010EE0AF0090042
:101AD400F5CFEEFFE550E150FAE100EE0EF00A0E0C
:101AE400EE6AE806FDE10001E4EF0DF00A500B1088
:101AF400D8B47FEF0DF081EF0DF0A5EF0DF0010EDE
:101B04000C6E89EF0DF0D8900A360B360C2A0BAE0A
:101B14008EEF0DF090EF0DF085EF0DF00A50085C9C
:101B24000B500958D8A099EF0DF09BEF0DF09FEFE3
:101B34000DF00A50085E0B50095AD8900B320A3245
:101B44000C2E90EF0DF008C008F009C009F0120047
:101B5400000E066E000E056E03500410D8B4B5EFE7
:101B64000DF0B7EF0DF0DFEF0DF0010E076EBFEFD4
:101B74000DF0D89003360436072A04AEC4EF0DF0F6
:101B8400C6EF0DF0BBEF0DF0D890053606360350C6
:101B9400015C04500258D8A0D2EF0DF0D4EF0DF040
:101BA400D9EF0DF00350015E0450025A0580D8901D
:101BB40004320332072EC6EF0DF005C001F006C053
:101BC40002F012009468000E936E000E956E000EE3
:101BD400836E818081828184818682B0F4EF0DF0EE
:101BE400F6EF0DF0A4EF0EF082A2FBEF0DF0FDEF87
:101BF4000DF0A4EF0EF00E4A0F2A0F0E0E5C270E06
:101C04000F58D8A008EF0EF00AEF0EF00EEF0EF00A
:101C1400000E0F6E000E0E6E0EC001F00FC002F02B
:101C2400030E046EE80E036EAAEC0DF001C016F06C
:101C340002C017F0000E046E640E036E0EC001F0B5
:101C44000FC002F0AAEC0DF001C008F002C009F0C8
:101C5400000E0B6E0A0E0A6E78EC0DF008C014F03C
:101C640009C015F0000E046E0A0E036E0EC001F0DA
:101C74000FC002F0AAEC0DF001C008F002C009F098
:101C8400000E0B6E0A0E0A6E78EC0DF008C012F00E
:101C940009C013F00EC008F00FC009F0000E0B6E5F
:101CA4000A0E0A6E78EC0DF008C010F009C011F0AD
:101CB400180E1624D96E000E1720DA6EDF50836ECC
:101CC4008190410E0D6EEE0EE82EFED70D2EFCD740
:101CD40000D08180180E1424D96E000E1520DA6EFF
:101CE400DF50836E8192410E0D6EEE0EE82EFED70C
:101CF4000D2EFCD700D08182180E1224D96E000E4E
:101D04001320DA6EDF50836E8194410E0D6EEE0E59
:101D1400E82EFED70D2EFCD700D08184180E102497
:101D2400D96E000E1120DA6EDF50836E8196410E5B
:101D34000D6EEE0EE82EFED70D2EFCD700D0818658
:101D4400EFEF0DF082B2A9EF0EF0ABEF0EF058EF0B
:101D54000FF082A0B0EF0EF0B2EF0EF058EF0FF0DC
:101D64000E06D8A00F060E500F10D8A4BCEF0EF02C
:101D7400BEEF0EF0C2EF0EF0270E0F6E0F0E0E6EBA
:101D84000EC001F00FC002F0030E046EE80E036EE5
:101D9400AAEC0DF001C016F002C017F0000E046E9C
:101DA400640E036E0EC001F00FC002F0AAEC0DF039
:101DB40001C008F002C009F0000E0B6E0A0E0A6E94
:101DC40078EC0DF008C014F009C015F0000E046E94
:101DD4000A0E036E0EC001F00FC002F0AAEC0DF063
:101DE40001C008F002C009F0000E0B6E0A0E0A6E64
:101DF40078EC0DF008C012F009C013F00EC008F022
:101E04000FC009F0000E0B6E0A0E0A6E78EC0DF08E
:101E140008C010F009C011F0180E1624D96E000E77
:101E24001720DA6EDF50836E8190410E0D6EEE0E38
:101E3400E82EFED70D2EFCD700D08180180E142476
:101E4400D96E000E1520DA6EDF50836E8192410E3A
:101E54000D6EEE0EE82EFED70D2EFCD700D081823B
:101E6400180E1224D96E000E1320DA6EDF50836E22
:101E74008194410E0D6EEE0EE82EFED70D2EFCD78A
:101E840000D08184180E1024D96E000E1120DA6E51
:101E9400DF50836E8196410E0D6EEE0EE82EFED756
:101EA4000D2EFCD700D08186EFEF0DF082A05DEF00
:101EB4000FF05FEF0FF0FCEF0FF082A264EF0FF072
:101EC40066EF0FF0FCEF0FF00EC001F00FC002F050
:101ED400030E046EE80E036EAAEC0DF001C016F0BA
:101EE40002C017F0000E046E640E036E0EC001F003
:101EF4000FC002F0AAEC0DF001C008F002C009F016
:101F0400000E0B6E0A0E0A6E78EC0DF008C014F089
:101F140009C015F0000E046E0A0E036E0EC001F027
:101F24000FC002F0AAEC0DF001C008F002C009F0E5
:101F3400000E0B6E0A0E0A6E78EC0DF008C012F05B
:101F440009C013F00EC008F00FC009F0000E0B6EAC
:101F54000A0E0A6E78EC0DF008C010F009C011F0FA
:101F6400180E1624D96E000E1720DA6EDF50836E19
:101F74008190410E0D6EEE0EE82EFED70D2EFCD78D
:101F840000D08180180E1424D96E000E1520DA6E4C
:101F9400DF50836E8192410E0D6EEE0EE82EFED759
:101FA4000D2EFCD700D08182180E1224D96E000E9B
:101FB4001320DA6EDF50836E8194410E0D6EEE0EA7
:101FC400E82EFED70D2EFCD700D08184180E1024E5
:101FD400D96E000E1120DA6EDF50836E8196410EA9
:101FE4000D6EEE0EE82EFED70D2EFCD700D08186A6
:0C1FF400EFEF0DF0EFEF0DF000EF00F04C
:020000040020DA
:08000000FFFFFFFFFFFFFFFF00
:020000040030CA
:0E000000FF071F1FFF8385FF03C003E00340BF
:00000001FF
